:020000040800F2
:10000000F04F002001010008090100080B01000861
:100010000D0100080F010008110100080000000098
:1000200000000000000000000000000013010008B4
:10003000150100080000000017010008631A0008FD
:100040001B0100081B0100081B0100081B01000820
:100050001B0100081B0100081B0100081B01000810
:100060001B0100081B0100081B0100081B01000800
:100070001B0100081B0100081B0100081B010008F0
:100080001B0100081B0100081B0100081B010008E0
:100090001B0100081B0100081B0100081B010008D0
:1000A0001B010008191B00081B0100081B010008A8
:1000B0001B0100081B0100081B0100081B010008B0
:1000C0001B0100081B0100081B0100081B010008A0
:1000D0001B0100081B0100081B0100081B01000890
:1000E0001B0100081B0100081B010008DFF80CD0F1
:1000F00000F018F800480047D11C0008F04F00201D
:100100000648804706480047FEE7FEE7FEE7FEE7B1
:10011000FEE7FEE7FEE7FEE7FEE7FEE7D11A00088E
:10012000ED000008064C074D06E0E06840F00103D2
:1001300094E8070098471034AC42F6D3FFF7DAFF93
:10014000901D0008B01D000870B504460068816865
:10015000C943C9071BD1816821F00101816000F00A
:10016000DFFA05460EE000BF00F0DAFA401B022875
:1001700008D9042084F82900E06A40F00100E06218
:10018000012070BD20688068C043C007ECD000200B
:1001900070BD0000F8B5002604460096006881682E
:1001A000C943C90728D0816841F001018160134823
:1001B00013490068B0FBF1F000E0401E00900028F9
:1001C000FBD100F0ADFA054611E000BF00F0A8FA3F
:1001D000401B02280BD9042084F8290054F82C0F66
:1001E00040F0010044F8040901202670F8BD2068A1
:1001F0008068C043C007E9D10020F8BD140000208A
:1002000040420F00F8B50025009590F82820AE4632
:10021000012A1ED0012280F828204A681F244FF4AA
:100220007873072A17D20668776B93FAA3FCBCFA97
:100230008CFC521E02FB0CFC04FA0CF4A74393FA4C
:10024000A3F3B3FA83F30C685A43944027437763CC
:100250002DE00220F8BD06680D2A14D2376B93FA00
:10026000A3FCBCFA8CFCD21F02FB0CFC04FA0CF4BD
:10027000A74393FAA3F3B3FA83F30C685A43944069
:100280002743376313E0F76A93FAA3FCBCFA8CFCAC
:100290000D3A02FB0CFC04FA0CF4A74393FAA3F307
:1002A000B3FA83F30C685A4394402743F7620A6811
:1002B0003823072406680A2A14D3F76893FAA3FCA4
:1002C000BCFA8CFC0A3A02FB0CFC04FA0CF4A743BF
:1002D00093FAA3F3B3FA83F38C685A439440274309
:1002E000F76012E0376993FAA3FCBCFA8CFC02FBBE
:1002F0000CFC04FA0CF4A74393FAA3F3B3FA83F3C8
:100300008C685A439440274337610A68102A01D009
:10031000112A1FD1114B02689A4217D193681B0210
:1003200018D4936843F4000393600968102911D12D
:100330000B490C4A0968B1FBF2F101EB810149005C
:1003400000E0491E00910029FBD103E0042180F860
:100350002910012580F828E02846F8BD0024014036
:100360001400002040420F000068C06C704700007D
:100370002DE9F04104004FF0000504D094F8290065
:10038000002618B107E00120BDE8F08184F828605C
:10039000204600F071F82046FFF7D6FE04270246FB
:1003A000012861D0022084F82900E369616890FA8D
:1003B000A0F01943E368B0FA80F003FA00F00143BB
:1003C000A0684FF4807C604508D0012806D000204A
:1003D000D4F814E0BEF1010F02D00FE06046F7E759
:1003E00063B94FF4604EA3699EFAAEFEBEFA8EFE6C
:1003F0005B1E03FA0EF3034343F400602368D3F853
:1004000004E02EF4694E4EEA000EC3F804E02068C2
:100410008368DFF85CE003EA0E030B438360A068A7
:10042000604508D14FF47000256990FAA0F0B0FA49
:1004300080F06D1E85402068C36A23F470032B434F
:10044000C362206880680B4B1840884204D1E66282
:10045000012084F8290009E084F82970E06A40F05E
:100460000100E062012201E084F8297010468BE768
:10047000FDF7E1FFFE0F1FFF00B500680B4985B0D7
:10048000884210D10A48816941F400718161806914
:10049000694600F400700490012000900320019050
:1004A000044800F059F805B000BD000000240140E8
:1004B000001002400008014010B5044690F82800E2
:1004C000012820D0012084F828002046FFF762FE92
:1004D0000146002001292BD094F82920222A14D08B
:1004E0005FF0120284F8292084F82800E062206876
:1004F000026822F00202026020688268C2F342426F
:10050000072A04D00BE0022010BD3222EAE70A4A93
:10051000904209D1094A126812F4702F04D08268FF
:1005200042F48012826005E0826842F4A002F9E79A
:1005300084F82800084610BD00280140042401402A
:1005400031B500F0EDF8044600F0EAF80099001B20
:100550008842F9D338BD00002DE9F84FDFF890A1AB
:1005600000220AF1040B144601274FF00F090BF18A
:10057000040E00BF0B6807FA04F52B40AB4274D1A0
:10058000DFF870C14E68A6EB0C0866452BD00DDC79
:10059000032E34D005DC36B3012E19D0022E2FD114
:1005A0001BE0112E16D0122E2AD119E0B8F5881FA3
:1005B00019D006DCB8F5803F15D0B8F5801F1FD1E3
:1005C00011E0B8F5001F0ED0B8F5041F18D10AE0ED
:1005D000CA6815E0CA68121D12E0CA6808320FE046
:1005E000CA680C320CE08A682AB1012A4FF008026E
:1005F00003D0456104E0042202E0056100E000222E
:10060000FF2B01D8064601E000F104064FEA8405FD
:1006100001D9A5F12005D6F800C009FA05F82CEAA1
:10062000080C02FA05F54CEA050CC6F800C04D6846
:10063000ED0057D5304DAE6946F00106AE61AD69AB
:1006400024F0030605F0010500952C4D06EB050C82
:10065000DCF80850A6074FEA167809FA08F6B54301
:10066000274EB04202D1002610E03BE0254EB042BA
:1006700001D101260AE0244EB04201D1022605E054
:10068000224EB04201D1032600E0042606FA08F605
:100690002E43CCF808604D68DAF80060ED0355464B
:1006A00001D51E4300E09E432E604D68DBF80060DC
:1006B000AD035D4601D51E4300E09E432E604D68AC
:1006C000DEF80060ED02754601D51E4300E09E4352
:1006D0002E604D68AD020E4D2E6801D51E4300E020
:1006E0009E432E60641C102CFFF444AFBDE8F88FCD
:1006F0000004014000001110001002400000014001
:1007000000080140000C01400010014000140140AD
:100710000C0401400AB1016170470904FBE70000C5
:10072000014800687047000010000020024801687E
:10073000491C01607047000010000020074810B5F8
:10074000016841F010010160032000F065F800200D
:1007500000F006F800F016F8002010BD002002405E
:1007600010B5044600F044FA4FF47A71B0FBF1F092
:1007700000F01EFF00222146501E00F02DF8002040
:1007800010BD00000C4808B5816941F0010181618C
:10079000806900F001000090032000F03DF8002285
:1007A0001146501E00F018F80448416821F0E0613D
:1007B00041F00071416008BD00100240000001409E
:1007C00000F01F02012191404009800000F1E0206B
:1007D000C0F8001170470000F0B40E4B1B680C46C7
:1007E000C3F30223C3F10705042D00D90425191D05
:1007F000072901D2002300E0DB1E012606FA05F1DD
:10080000491E214099409E40761E16403143F0BC5F
:1008100001F0C8B80CED00E0064900F007020868D6
:100820004FF6FF03184040EA0220034A10430860D5
:10083000704700000CED00E00000FA052DE9F843D8
:1008400004460078454DC00773D0E86940F08050F9
:10085000E861E869424E00F080500090306840F452
:1008600080703060FFF75CFF074604E0FFF758FF39
:10087000C01B642833D83068C005F7D5286AA18822
:1008800000F4407001F440710126814216D0286ABC
:10089000320420F4407192FAA2F0B0FA80F08300A2
:1008A00030480344C3F8006492FAA2F2B2FA82F22A
:1008B00000EB82000023C0F8003429626068B0F5C4
:1008C000807F30D1FFF72CFFB046074641F28839D0
:1008D000022607E0FFF724FFC11B494502D9032088
:1008E000BDE8F88396FAA6F0B0FA80F040F0400038
:1008F000B8EB501F01D128680BE096FAA6F0B0FAC9
:1009000080F040F04000B6EB501F01D1286A00E0B3
:10091000686A96FAA6F2B2FA82F202F01F0208FAA8
:1009200002F10842D6D0286A616820F4407008437A
:1009300028622078800705D56868A16820F44040C7
:10094000084368602078C00605D56868E16820F42F
:100950008000084368600020C2E7000000100240E9
:1009600000700040000042422DE9F047DFF8789225
:1009700005460E46D9F80000022300F007070120C3
:1009800041044206994C41F28838B74271D2D9F8F5
:1009900000C02CF0070C4CEA060CC9F800C0D9F8CE
:1009A000007007F00707B7426FD12E78B60705D55C
:1009B0006668AF6826F0F0063E4366602E78F6075C
:1009C00056D06E68012E0BD0022E1ED093FAA3F1E2
:1009D000B1FA81F141F02001490924D0216823E0D6
:1009E00091FAA1F2B2FA82F242F02002520901D049
:1009F000226800E0626A91FAA1F1B1FA81F101F096
:100A00001F018840024240D017E092FAA2F1B1FAE9
:100A100081F141F02001490901D0216800E0616ABB
:100A200092FAA2F202E0616A93FAA3F2B2FA82F2B7
:100A300002F01F029040014227D0606820F00300BE
:100A400030436060FFF76CFE06466868012809D0F5
:100A50000228474613D01EE0FFF762FE801BB84213
:100A600001D992E047466068C0F381000128F3D1C4
:100A7000A1E015E0FFF754FE801BB84273D8606810
:100A8000C0F381000228F5D195E092E0FFF748FE1F
:100A9000801BB84279D8606810F00C0FF6D18AE05C
:100AA0002F78BF0707D56768D5F808C027F0F0078B
:100AB00047EA0C0767602F78FF076DD06F68012F3A
:100AC0000BD0022F1ED093FAA3F1B1FA81F141F0BD
:100AD0002001490924D0216823E091FAA1F2B2FA59
:100AE00082F242F02002520901D0226800E0626ADC
:100AF00091FAA1F1B1FA81F101F01F01884002429F
:100B000057D017E092FAA2F1B1FA81F141F0200139
:100B1000490901D0216800E0616A92FAA2F202E07C
:100B2000616A93FAA3F2B2FA82F202F01F029040D5
:100B300001423ED0606820F0030038436060FFF758
:100B4000EFFD07466868012807D0022811D01FE092
:100B5000FFF7E6FDC11B414517D86068C0F381006F
:100B60000128F5D118E010E0FFF7DAFDC11B41457F
:100B70000BD86068C0F381000228F5D10CE000BFFB
:100B8000FFF7CEFDC11B414502D90320BDE8F08728
:100B9000606810F00C0FF3D1D9F8001021F00701B4
:100BA0003143C9F80010D9F8000000F00700B04246
:100BB00001D00120EAE72878400705D56068E96898
:100BC00020F4E060084360602878000706D560687C
:100BD000296920F4605040EAC10060600020FFF7FE
:100BE000BFFD0020D2E700000020024000100240BC
:100BF00010B500F017F808494968F02292FAA2F2FD
:100C000001F0F001B2FA82F2D140044A515CC840CE
:100C10000349086010BD000000100240801D00085C
:100C20001400002010B519A385B00FCB8DE80F007C
:100C30001AA01B4B006804905A681A4802F00C0175
:100C400004291DD008291BD14FF4701494FAA4F480
:100C500002F47011B4FA84F4E140D2031DF80110DB
:100C600010D55A684FF4003393FAA3F302F400321C
:100C7000B3FA83F3DA4004AB9A5CB0FBF2F048437A
:100C800005B010BD08484843FAE700000203040518
:100C9000060708090A0B0C0D0E0F101001020000C8
:100CA0000010024000127A0000093D002DE9F84FC3
:100CB00005460078DFF85C95C0074FF0010429D0A5
:100CC000D9F804004E46C0F381006704012807D01C
:100CD0007068C0F3810002281DD17068C0031AD566
:100CE00097FAA7F0B0FA80F040F02000400901D058
:100CF000306800E0706A97FAA7F1B1FA81F101F06B
:100D00001F0104FA01F1084204D06868012801D0EB
:100D1000052879D184E0306820F480303060306874
:100D200020F480203060FFF7FBFC824641F28838D7
:100D300006E000BFFFF7F4FCA0EB0A0141457DD8B7
:100D400097FAA7F0B0FA80F040F02000400901D0F7
:100D5000306800E0706A97FAA7F1B1FA81F101F00A
:100D60001F0104FA01F10842E4D1306820F4803018
:100D70003060686801280BD0052811D0306820F455
:100D800080203060686858B3FFF7CAFC824611E0E3
:100D9000306820F480203060306840F48030F0E724
:100DA0000520B070EEE700BFFFF7BAFCA0EB0A0128
:100DB0004145C4D897FAA7F0B0FA80F040F020007F
:100DC000400901D0306800E0706A97FAA7F1B1FAE3
:100DD00081F101F01F0104FA01F10842E4D01FE0A3
:100DE000FFF79EFC824605E0FFF79AFCA0EB0A01A4
:100DF0004145A4D897FAA7F0B0FA80F040F020005F
:100E0000400902D0306801E0BAE0706A97FAA7F1B1
:100E1000B1FA81F101F01F0104FA01F10842E3D1B6
:100E20002878FD4F80074FF0000A4FF0020634D5B6
:100E3000D9F80410484611F00C0F00E0B0E108D0DA
:100E40004168C846C1F38101022927D14168C9031D
:100E500024D496FAA6F1B1FA81F141F020014909B2
:100E600001D0016800E0416A96FAA6F2B2FA82F275
:100E700002F01F0204FA02F2114202D0296901298C
:100E80007ED10168F82321F0F80293FAA3F369698F
:100E9000B3FA83F399400A4302604FE0286938B3FC
:100EA00094FAA4F0B0FA80F047F82040FFF738FC3D
:100EB000834605E0FFF734FCA0EB0B00642898D8CC
:100EC00096FAA6F0B0FA80F040F0200040094046C3
:100ED00001D0006800E0406A96FAA6F1B1FA81F10B
:100EE00001F01F0104FA01F10842E3D04046C8E7CF
:100EF00094FAA4F1B1FA81F147F821A0FFF710FCB0
:100F0000834605E0FFF70CFCA0EB0B006428D6D865
:100F100096FAA6F0B0FA80F040F020004009404672
:100F200001D0006800E0406A96FAA6F1B1FA81F1BA
:100F300001F01F0104FA01F10842E3D1287800070B
:100F400073D5A869D8B394FAA4F0B0FA80F007EB8F
:100F50008000C0F88044FFF7E3FB804606E000BF56
:100F6000FFF7DEFBA0EB08006428A8D896FAA6F0ED
:100F7000B0FA80F040F06000B4EB501F04D100E004
:100F8000D7E1D9F800000CE096FAA6F0B0FA80F0AC
:100F900040F06000B6EB501F484601D1006A00E007
:100FA000406A96FAA6F1B1FA81F101F01F0204FA43
:100FB00002F10842D4D00120FFF7C2FA35E0FFE782
:100FC00094FAA4F1B1FA81F107EB8101C1F880A490
:100FD000FFF7A6FB804605E0FFF7A2FBA0EB0800A9
:100FE000642894D896FAA6F0B0FA80F040F0600039
:100FF000B4EB501F02D1D9F800000CE096FAA6F02D
:10100000B0FA80F040F06000B6EB501F484601D1C6
:10101000006A00E0406A96FAA6F1B1FA81F101F0A7
:101020001F0204FA02F10842D6D1287840077DD584
:10103000D9F81C1041F08051C9F81C10D9F81C00D7
:10104000DFF8D8B100F080500090DBF8001041F4D8
:101050008071CBF80010FFF763FB804606E000BF0D
:10106000FFF75EFBA0EB08006428BAD8DBF80000AD
:10107000C005F5D594FAA4F1B1FA81F107EB81012D
:10108000C1F800A44FF0040B9BFAABF1B1FA81F167
:1010900007EB8101C1F800A4FFF742FB009007E0D5
:1010A000FFF73EFB0099411A41F28830814277D820
:1010B00096FAA6F0B0FA80F040F04000B4EB501F72
:1010C00002D1D9F800000CE096FAA6F0B0FA80F050
:1010D00040F04000B6EB501F484601D1006A00E0E6
:1010E000406A96FAA6F1B1FA81F101F01F0104FA03
:1010F00001F1A0460842D3D1E868E0B1012850468A
:101100002AD094FAA4F1B1FA81F107EB8101C1F878
:1011100000049BFAABF000BFB0FA80F007EB800050
:10112000C0F80044E868012821D000E083E0FFF720
:10113000F7FA834656E094FAA4F1B1FA81F107EB8D
:101140008101C1F800A49BFAABF1B1FA81F107EB80
:101150008101C1F800A4E5E79BFAABF1B1FA81F196
:1011600007EB8101C1F8000494FAA4F0D4E7FFF77B
:10117000D7FA834608E000BFFFF7D2FAA0EB0B01D5
:1011800041F2883081420BD896FAA6F0B0FA80F08E
:1011900040F04000B8EB501F03D1D9F800000DE03B
:1011A0009DE096FAA6F0B0FA80F040F04000B6EB71
:1011B000501F484601D1006A00E0406A96FAA6F145
:1011C000B1FA81F101F01F0208FA02F10842D3D00E
:1011D00031E000BFFFF7A4FAA0EB0B0141F2883029
:1011E00081427CD896FAA6F0B0FA80F040F0400038
:1011F000B8EB501F02D1D9F8000012E096FAA6F021
:10120000B0FA80F040F04000B6EB501F484607D1DE
:10121000006A06E0001002400000424200700040F8
:10122000406A96FAA6F1B1FA81F101F01F0208FABC
:1012300002F10842CED1E869B0B3D9F804104E46A5
:10124000C1F38101022974D002284FF080714FF060
:10125000007950460AD091FAA1F1B1FA81F147F82C
:101260002100FFF75DFA07464D466BE08A4691FA8A
:10127000A1F1B1FA81F1BB4647F82100FFF750FA1E
:1012800080464F4606E000BFFFF74AFAA0EB080091
:10129000642854D897FAA7F0B0FA80F040F0200004
:1012A000400902D0306801E061E0706A97FAA7F166
:1012B000B1FA81F101F01F0104FA01F10842E3D112
:1012C000286AB0F5803F05D17068A96820F4003025
:1012D00008437060D5E908010843716800E02EE01A
:1012E00021F47411084370609AFAAAF0B0FA80F001
:1012F0004BF82040FFF714FA054604E0FFF710FA18
:10130000401B64281BD897FAA7F0B0FA80F040F091
:101310002000400901D0306800E0706A97FAA7F118
:10132000B1FA81F101F01F0104FA01F10842E5D0A0
:101330001DE01EE0FFF7F4F9C01B642802D903206A
:10134000BDE8F88F95FAA5F0B0FA80F040F02000E3
:10135000400901D0306800E0706A95FAA5F1B1FA51
:1013600081F101F01F0104FA01F10842E2D10020ED
:10137000E6E70120E4E7000010B5040003D094F88C
:10138000510010B104E0012010BD204600F038F8F3
:10139000022084F851002068016821F040010160BA
:1013A000D4E901010843D4E90312114308436169F8
:1013B0000843218B01F400710843E1690843216A65
:1013C0000843A16A084321680860A069042101EA72
:1013D0001040616A0843216848602168E06A08613A
:1013E0002068C16921F40061C161044900200870CE
:1013F0006065012084F85100002010BD0E0000201F
:1014000000B500680E4985B0884217D10D48816942
:1014100041F4805181618069694600F480500490F4
:101420002820009002200190032003900648FFF737
:1014300093F80648416841F00101416005B000BDE4
:101440000030014000100240000C0140000001404B
:101450002DE9F843044690F851009846012870D1D0
:1014600039B332B394F8500001286AD0012684F8C9
:101470005060122084F85100002565652163A28622
:10148000E286E564A564A563A587E587A06A77037E
:10149000B84209D12068016821F400510160206838
:1014A000016841F400510160A068B0F5004F03D01D
:1014B00007E00120BDE8F8832068016841F480411D
:1014C000016020680168490603D4016841F04001C9
:1014D0000160E0680028606804D0D8B1E08E01287F
:1014E00018D021E010B1E08E012808D1206B411CFA
:1014F000216321680078C860E08E401EE086000409
:10150000000C1FD0434600220221204600F05AFA68
:10151000A8B9EBE7206B21680088C860206B801CAD
:101520002063E08E401EE0860004000C0AD0434693
:1015300000220221204600F045FA0028EAD00320CC
:10154000B8E726E0A06AB84204D12068016841F4F7
:1015500080510160434600220221204600F032FA09
:1015600030B9434601228021204600F02BFA20B1F9
:10157000606D40F010006065E1E7A06818B9206870
:10158000C1688068009084F8516084F85050002051
:1015900090E702208EE74FF0E0210428086903D08D
:1015A00020F004000861704740F00400FAE770473B
:1015B00010B5401EB0F1807F01D3012010BD4FF067
:1015C000E02460610F21601700F0ECF90020A061B9
:1015D00007202061002010BD10B5FFF7E8FF10BD07
:1015E0007047704730B590F83820012A20D001228A
:1015F00080F83820022380F8393003685C6824F0D2
:1016000070045C6003685C680D682C435C60036870
:101610009C6824F080049C6003689C6849680C43C3
:101620009C6080F83920002180F83810084630BDD1
:10163000022030BD10B5040003D094F8390010B179
:1016400007E0012010BD002084F83800204600F09B
:101650000DF8022084F83900211D206800F0AAFA54
:10166000012084F83900002010BD000008B5006892
:101670000B49884212D10B48816941F400618161B4
:101680008069002200F40060009011461920FFF7E5
:10169000A3F8BDE808401920FFF792B808BD000084
:1016A000002C0140001002400168CA6842F00102AB
:1016B000CA600068016841F00101016000207047C4
:1016C00070B5044690F83800012817D0012584F839
:1016D0003850022084F839002068826822F07702AE
:1016E00022F47F4282600868502837D00DDC202821
:1016F00059D005DC88B3102841D151E0022070BDDB
:10170000302853D040283AD13FE060282ED07028AE
:101710000BD0B0F5805F03D0B0F5005F2FD110E0A3
:101720002068816821F0070115E0CB68D1E901212B
:10173000206800F071FA2168886840F077008860BE
:101740001DE0CB68D1E90121206800F065FA20682E
:10175000816841F48041816011E01EE0CA684968F7
:10176000206800F06BFA5021206806E0CA684968DA
:10177000206800F074FA6021206800F057FA84F8BD
:101780003950002084F8380070BDCA684968206864
:1017900000F054FA40212068EFE700212068ECE7D0
:1017A00010212068E9E720212068E6E73021206841
:1017B000E3E7704770B50446006801694FF0000523
:1017C000C943890715D4C168C943890711D4E91EE3
:1017D000016101202076206880698007204602D0C0
:1017E000FFF7E7FF04E000F098F8204600F096F8D5
:1017F000257620680169C943490717D4C168C943E0
:10180000490713D46FF0040101610220207620689B
:10181000806910F4407F204602D0FFF7CAFF04E041
:1018200000F07BF8204600F079F825762068016901
:10183000C943090716D4C168C943090712D46FF018
:1018400008010161042020762068C06980072046D5
:1018500002D0FFF7AEFF04E000F05FF8204600F092
:101860005DF8257620680169C943C90617D4C168A7
:10187000C943C90613D46FF0100101610820207616
:101880002068C06910F4407F204602D0FFF791FF26
:1018900004E000F042F8204600F040F82576206889
:1018A0000169C943C90708D1C168C943C90704D13F
:1018B000891E0161204600F032F820680169C943A1
:1018C000090609D4C168C943090605D46FF080012F
:1018D00001612046FFF784FE20680169C94349067B
:1018E00009D4C168C943490605D46FF040010161BC
:1018F000204600F015F820680169C94389060BD419
:10190000C168C943890607D46FF0200101612046F0
:10191000BDE87040FFF765BE70BD70477047704707
:10192000704700000C480B494FF4006201604FF40F
:10193000827141600021C0E9021292100161C0E988
:1019400005120822C0E90721416281620A21C162B1
:10195000FFF712BD00300140584B002010B5104871
:1019600086B00E490024C0E90014102181604FF4B4
:101970001661C0E903144461FFF75CFE4FF4805028
:10198000009069460648FFF79BFE049404A90448AA
:101990000594FFF727FE06B010BD0000002C0140A3
:1019A000B04B00200907090E002806DA00F00F00EE
:1019B00000F1E02080F8141D704700F1E02080F86D
:1019C000001470472DE9F0471D4690460E46044628
:1019D000FEF7A6FE07465FEA08004FF000084FF446
:1019E000005A4FF0010926D034E0681C23D025B1FD
:1019F000FEF796FEC01BA8421DD92068416821F061
:101A0000E00141602068016821F040010160A06AA6
:101A1000504509D12068016821F400510160206817
:101A2000016841F40051016084F8519084F85080BD
:101A30000320BDE8F0872068806836EA0000D4D132
:101A40000DE0681C06D0002DD7D0FEF769FEC01B44
:101A5000A842D2D82068806836EA0000F1D0002081
:101A6000E7E710B5FEF762FEBDE81040FFF7B4BD32
:101A700030B593B0012000240090CDE90104022587
:101A80000004CDE907504FF4E01009906846FFF7D5
:101A90000DF90520CDE90A056802CDE90C400221C7
:101AA0000AA80E94FEF760FFA80311900F950FA8E7
:101AB000FEF7C4FEFFF79CF84FF47A71B0FBF1F02B
:101AC000FFF776FD0420FFF766FD13B030BD000080
:101AD0000D48016841F00101016041680B4A114065
:101AE000416001680A4A11400160016821F48021C7
:101AF0000160416821F4FE0141604FF41F018160E3
:101B00000449C00308607047001002400000FFF85D
:101B1000FFFFF6FE08ED00E010B52348FFF74AFE90
:101B2000224C4FF416516088401C82B20020628023
:101B30008A4200D36080A288521C92B2A2808A425C
:101B400000D3A080E288521C92B2E2808A4200D385
:101B5000E0802289521C92B222818A4200D32081E5
:101B600011488838FEF700FC1149628821F81200FC
:101B7000A088E28831F8100031F812201044228940
:101B800031F81210084480B2A0812178012909D1CE
:101B90006189BDE81040B0FBF1F000F5805080B2E3
:101BA00000F07EB810BD0000B04B00200000002007
:101BB00028000020F0B50268144B154C154D4FF06D
:101BC0008047984205D0B84203D0A04201D0A84235
:101BD00003D122F070064A683243984205D0B842D9
:101BE00003D0A04201D0A84203D122F44074CA68B5
:101BF000224302608A68C2620A688262984201D106
:101C00000969016301214161F0BD0000002C014020
:101C1000000400400008004010B5846842EA032236
:101C200024F47F440A432243826010BD826822F07C
:101C300070020A4342F007018160704710B5036AE1
:101C4000046A24F001040462846924F0F00444EA84
:101C5000021423F00A020A438461026210BD10B527
:101C6000036A23F0100303628369046A23F4704358
:101C700043EA023224F0A00343EA011182610162C7
:101C800010BD02E008C8121F08C1002AFAD170472F
:101C90007047002001E001C1121F002AFBD17047EC
:101CA00031B5094C002210212046FEF733FD0A23EE
:101CB000012269460548FFF7CBFB0122102120468F
:101CC000FEF728FD38BD0000000C0140584B0020F5
:101CD00086B0FEF733FDFFF7CBFE2548816941F062
:101CE00020018161816901F020010491816941F045
:101CF00004018161816901F004010491816941F06D
:101D0000080181618069012400F0080004905020DE
:101D1000CDE90004174E694630460394FEF71CFCDB
:101D20001649154800250860C1E902544D614D600F
:101D30004FF460200C61C8610846FEF719FBCDE93D
:101D4000005469460D480295FEF75CFAFFF7EAFD7C
:101D5000FFF704FE09488830FFF7A6FC0748FEF7A6
:101D6000ABFB002240213046FEF7D4FCFEE700002A
:101D700000100240000C014000240140284B0020CC
:101D80000000000001020304010203040607080921
:101D9000B01D00080000002028000000821C000880
:101DA000D81D000828000020C84F0000921C000821
:101DB000010000000100C4099411050000000000AA
:101DC0000000000000A24A04000000000000000023
:081DD0000102030406070809E3
:04000005080000ED02
:00000001FF
